:100000000C942A000C94E20F0C940B100C943410F6
:100010000C9447000C9447000C9447000C94470044
:100020000C9447000C9447000C9447000C94470034
:100030000C9447000C9447000C9447000C94470024
:100040000C945B0F0C9447000C9447000C944700F1
:100050000C94470011241FBECFE5D8E0DEBFCDBF12
:1000600011E0A0E6B0E0EEEFF6E202C005900D92DE
:10007000A83CB107D9F711E0A8ECB1E001C01D928E
:10008000AF3DB107E1F70E94AC120C947D130C94C4
:100090000000EF92FF920F931F937B018C0120E0F1
:1000A00030E040E05FE40E94C50388238CF0C80183
:1000B000B70120E030E040E05FE40E94C1010E940F
:1000C000F5039B01AC01205030404040504806C031
:1000D000C801B7010E94F5039B01AC01B901CA0137
:1000E0001F910F91FF90EF900895A0E0B0E0EBE733
:1000F000F0E00C944613DC012B01FA019C91923044
:1001000008F439C1EB018881823008F433C194309E
:1001100069F4843009F02FC111969C91119789815F
:10012000981709F428C1AAE8B0E025C1843009F481
:1001300021C18230A9F4923009F01DC19A01AD01AC
:1001400088E0EA010990AE01E90109929E0181501F
:10015000C1F7E201898111969C918923818308C1AD
:10016000923009F407C112962D903C901397EB0141
:100170008A819B811496AD90BD90CD90DC901797AD
:10018000EC80FD800E811F819101281B390BB90184
:1001900037FF04C066277727621B730B6032710537
:1001A0000CF061C0121613066CF537014801062EDB
:1001B00004C096948794779467940A94D2F721E0C8
:1001C00030E040E050E004C0220F331F441F551FB1
:1001D0006A95D2F721503040404050402E213F21B7
:1001E00040235123211531054105510521F021E01E
:1001F00030E040E050E079018A01E628F72808293C
:1002000019293CC0232BD1F1260E371E350146019A
:10021000062E04C096948794779467940A94D2F734
:1002200021E030E040E050E004C0220F331F441FC3
:10023000551F6A95D2F721503040404050402A2146
:100240003B214C215D21211531054105510521F04E
:1002500021E030E040E050E059016A01A628B728CB
:10026000C828D9280BC0821593052CF01C01AA249C
:10027000BB24650103C0EE24FF24870111969C91E5
:10028000D20111968C91981709F445C0992339F041
:10029000A80197012A193B094C095D0906C0A6016E
:1002A00095012E193F09400B510B57FD08C01182D3
:1002B0003382228224833583468357831DC081E0A5
:1002C00081833382228288279927DC01821B930B4A
:1002D000A40BB50B84839583A683B7830DC0220F2F
:1002E000331F441F551F24833583468357838281E0
:1002F000938101979383828324813581468157813D
:10030000DA01C9010197A109B1098F5F9F4FAF4F72
:10031000BF4328F30BC0918333822282EA0CFB1C7B
:100320000C1D1D1DE482F5820683178383E0808304
:10033000248135814681578157FF1AC0C901AA27F8
:1003400097FDA095BA2F81709070A070B0705695EF
:10035000479537952795822B932BA42BB52B848318
:100360009583A683B7838281938101969383828349
:10037000DF0101C0D201CD01CDB7DEB7E2E10C94BF
:100380006213A0E2B0E0E7ECF1E00C945213698351
:100390007A838B839C832D833E834F835887E9E048
:1003A000EE2EF12CEC0EFD1ECE010196B7010E943F
:1003B000E6058E010F5E1F4FCE010596B8010E9423
:1003C000E6058A8991E089278A8BC701B801AE01C9
:1003D000475E5F4F0E9475000E941105A096E6E0FF
:1003E0000C946E13A0E2B0E0E8EFF1E00C9452132D
:1003F00069837A838B839C832D833E834F835887C5
:10040000F9E0EF2EF12CEC0EFD1ECE010196B701A6
:100410000E94E6058E010F5E1F4FCE010596B801C2
:100420000E94E605C701B801AE01475E5F4F0E941A
:1004300075000E941105A096E6E00C946E13A0E2F0
:10044000B0E0E5E2F2E00C94461369837A838B8393
:100450009C832D833E834F835887CE010196BE0136
:10046000675F7F4F0E94E605CE010596BE016F5E75
:100470007F4F0E94E6059985923088F08989823005
:10048000C8F0943019F4823051F404C0843029F457
:10049000923081F48AE890E0C6C0923049F420E0BE
:1004A0009A858A89981321E02A87CE010996BBC0D4
:1004B000823049F420E09A858A89981321E02A8BBA
:1004C000CE014196B0C02D843E844F8458886D88FB
:1004D0007E888F88988CEE24FF248701AA24BB2471
:1004E000650140E050E060E070E0E0E0F0E0C10174
:1004F00081709070892BE9F0E60CF71C081D191D1E
:100500009A01AB012A0D3B1D4C1D5D1D80E090E062
:10051000A0E0B0E0E614F7040805190520F481E036
:1005200090E0A0E0B0E0BA01A901480F591F6A1F8E
:100530007B1FAA0CBB1CCC1CDD1C97FE08C081E0F5
:1005400090E0A0E0B0E0A82AB92ACA2ADB2A3196B6
:10055000E032F10549F0660C771C881C991C569412
:10056000479437942794C3CFFA85EA892B893C892D
:100570008B859C85280F391F2E5F3F4F17C0CA01FE
:1005800081709070892B61F016950795F794E79428
:1005900080E090E0A0E0B0E8E82AF92A0A2B1B2BC3
:1005A00076956795579547952F5F3F4F77FDE7CF36
:1005B0000CC0440F551F661F771F17FD4160EE0CDE
:1005C000FF1C001F111F21503040403090E05907A0
:1005D00090E0690790E4790760F32B8F3C8FDB0193
:1005E000CA018F779070A070B07080349105A1051A
:1005F000B10561F447FD0AC0E114F10401051105DC
:1006000029F0405C5F4F6F4F7F4F40781A8EFE1786
:1006100011F081E08A8F4D8F5E8F6F8F78A383E01A
:10062000898FCE0149960E941105A096E2E10C94B3
:100630006213A8E1B0E0EFE1F3E00C944E1369839C
:100640007A838B839C832D833E834F835887B9E0C5
:10065000EB2EF12CEC0EFD1ECE010196B7010E948F
:10066000E6058E010F5E1F4FCE010596B8010E9470
:10067000E6052985223008F47EC03989323010F42D
:10068000B8017CC08A859A8989278A87243011F02D
:10069000223031F4231709F06EC06AE870E06EC0B2
:1006A000343039F41D861E861F86188A1C861B86E8
:1006B00004C0323021F484E08987B7015FC02B8504
:1006C0003C858B899C89281B390B3C872B87ED84C3
:1006D000FE840F851889AD88BE88CF88D88CEA142F
:1006E000FB040C051D0540F4EE0CFF1C001F111F40
:1006F000215030403C872B8720E030E040E050E044
:1007000080E090E0A0E0B0E460E070E0EA14FB0478
:100710000C051D0540F0282B392B4A2B5B2BEA18C2
:10072000FB080C091D09B695A79597958795EE0CC2
:10073000FF1C001F111F6F5F7F4F6F31710531F775
:10074000DA01C9018F779070A070B0708034910584
:10075000A105B10561F427FD0AC0E114F10401050A
:10076000110529F0205C3F4F4F4F5F4F20782D87B8
:100770003E874F87588BBE01675F7F4FCB010E943A
:1007800011056896EAE00C946A13A8E1B0E0EBEC7E
:10079000F3E00C94521369837A838B839C832D83BB
:1007A0003E834F83588789E0E82EF12CEC0EFD1E26
:1007B000CE010196B7010E94E6058E010F5E1F4F24
:1007C000CE010596B8010E94E6058985823040F089
:1007D0008989823028F0C701B8010E945E0601C0F5
:1007E0008FEF6896E6E00C946E13ACE0B0E0EBEFB0
:1007F000F3E00C94561369837A838B839C83CE0138
:100800000196BE016B5F7F4F0E94E6058D818230AD
:1008100061F1823050F1843021F48E81882351F1CE
:100820002EC02F81388537FD20C06E812F313105D4
:100830001CF06623F9F023C08EE190E0821B930B3D
:1008400029853A854B855C8504C056954795379533
:1008500027958A95D2F76623B1F05095409530954B
:1008600021953F4F4F4F5F4F0EC020E030E040E0FA
:1008700050E009C02FEF3FEF4FEF5FE704C020E0EB
:1008800030E040E050E8B901CA012C96E2E00C9457
:100890007213A8E0B0E0EFE4F4E00C944E137B0197
:1008A0008C01611571058105910519F482E0898338
:1008B00060C083E089838EE1C82ED12CDC82CB829C
:1008C000ED82FE820F831887C801B7010E94C2041F
:1008D000FC013197F7FF3BC0222733272E1B3F0B2C
:1008E00057016801022E04C0D694C794B794A79408
:1008F0000A94D2F740E050E060E070E081E090E0E0
:10090000A0E0B0E004C0880F991FAA1FBB1F2A9562
:10091000D2F70197A109B1098E219F21A023B1230C
:100920000097A105B10521F041E050E060E070E0E2
:100930004A295B296C297D294D835E836F837887E3
:100940008EE190E08E1B9F0B9C838B8312C03097AF
:1009500081F00E2E04C0EE0CFF1C001F111F0A9424
:10096000D2F7ED82FE820F831887CE1ADF0ADC826F
:10097000CB821A82CE0101960E9411052896EAE0E8
:100980000C946A13EF92FF920F931F937B018C01DB
:1009900080E0E81680E0F80681E0080780E01807AC
:1009A00088F48FEFE816F1040105110531F028F005
:1009B00088E090E0A0E0B0E017C080E090E0A0E028
:1009C000B0E012C080E0E81680E0F80680E008079A
:1009D00081E0180728F088E190E0A0E0B0E004C0D2
:1009E00080E190E0A0E0B0E020E230E040E050E0C4
:1009F000281B390B4A0B5B0B04C016950795F7941F
:100A0000E7948A95D2F7F701EE56FF4F8081281BB5
:100A1000310941095109C9011F910F91FF90EF90D0
:100A20000895DF92EF92FF920F931F93FC01E480F1
:100A3000F58006811781D1808081823048F480E082
:100A400090E0A0E1B0E0E82AF92A0A2B1B2BA5C010
:100A5000843009F49FC0823021F4EE24FF24870102
:100A600005C0E114F1040105110519F4E0E0F0E01E
:100A700096C0628173819FEF623879070CF05BC08A
:100A800022E83FEF261B370B2A3131052CF020E0FE
:100A900030E040E050E02AC0B801A701022E04C0B7
:100AA00076956795579547950A94D2F781E090E03F
:100AB000A0E0B0E004C0880F991FAA1FBB1F2A95B1
:100AC000D2F70197A109B1098E219F21A023B1235B
:100AD0000097A105B10521F081E090E0A0E0B0E031
:100AE0009A01AB01282B392B4A2B5B2BDA01C90168
:100AF0008F779070A070B07080349105A105B1051A
:100B000039F427FF09C0205C3F4F4F4F5F4F04C0AF
:100B1000215C3F4F4F4F5F4FE0E0F0E02030A0E01E
:100B20003A07A0E04A07A0E45A0710F0E1E0F0E03D
:100B300079018A0127C06038710564F5FB01E1582D
:100B4000FF4FD801C7018F779070A070B0708034CC
:100B50009105A105B10539F4E7FE0DC080E490E0F0
:100B6000A0E0B0E004C08FE390E0A0E0B0E0E80EC9
:100B7000F91E0A1F1B1F17FF05C016950795F7944E
:100B8000E794319687E016950795F794E7948A9550
:100B9000D1F705C0EE24FF248701EFEFF0E06E2FC0
:100BA000679566276795902F9F77D794DD24D79414
:100BB0008E2F8695492F462B582F5D29B701CA01E4
:100BC0001F910F91FF90EF90DF900895FC01DB01E2
:100BD000408151812281622F6F7770E0221F22278E
:100BE000221F9381892F880F822B282F30E0991F95
:100BF0009927991F11969C93119721153105A9F5F5
:100C0000411551056105710511F482E037C082E894
:100C10009FEF13969C938E9312979A01AB0167E016
:100C2000220F331F441F551F6A95D1F783E08C9321
:100C30000DC0220F331F441F551F12968D919C919A
:100C40001397019713969C938E931297203080E010
:100C5000380780E0480780E4580758F314962D932E
:100C60003D934D935C93179708952F3F310579F489
:100C7000411551056105710519F484E08C930895BF
:100C800064FF03C081E08C9312C01C9210C02F57E8
:100C9000304013963C932E93129783E08C9387E019
:100CA000440F551F661F771F8A95D1F770641496FD
:100CB0004D935D936D937C93179708951F93DC017B
:100CC000FB019C91923008F447C08081823008F487
:100CD00043C0943051F411961C91843099F5818170
:100CE000682F70E0611B71093FC0843021F09230A1
:100CF00031F48230B9F18181882389F12DC01196B8
:100D00001C9111978230F1F081811817D9F4129655
:100D10002D913C911397828193818217930794F0D0
:100D200028173907BCF014968D919D910D90BC91B8
:100D3000A02D2481358146815781281739074A071C
:100D40005B0718F4112341F00AC082179307A40728
:100D5000B50740F4112319F061E070E005C06FEFB2
:100D60007FEF02C060E070E0CB011F9108956F92A9
:100D70007F928F929F92AF92BF92CF92DF92EF922B
:100D8000FF920F931F93DF93CF93CDB7DEB7390157
:100D90004A01A6019501261B370B480B590B69899F
:100DA0007A898B899C890E94D6126E187F08800AE6
:100DB000910AA40193010E942B13CA01B901CF919A
:100DC000DF911F910F91FF90EF90DF90CF90BF9038
:100DD000AF909F908F907F906F90089581E00E94D8
:100DE000530E80E690E00E94EB0D66E970E02091E2
:100DF000920130919301621B730B882777FD8095D8
:100E0000982F0E94FE0D80E061E00E948A0E8CE621
:100E100090E00E94EB0D6091920170919301882700
:100E200077FD8095982F0E94FE0D8091CA019091C8
:100E3000CB010F960E946D0B8091CA019091CB015E
:100E40000C960E94530B1092C8011092C90108958C
:100E50000F931F93CF93DF93C0E9D1E006E910E031
:100E60008AED91E062E00E94120F84EF91E0FE01B2
:100E70003197F1F70197D9F78091C801813009F0D6
:100E800090C08091CA019091CB010F960E94530BA4
:100E90008091CA019091CB010C960E946D0B8091BC
:100EA0009201909193019801281B390B1216130699
:100EB000A4F039C06091E0017091E1014091E2013C
:100EC0005091E3018091DF010E94EF0E84EF91E0E9
:100ED000FE013197F1F70197D9F78091C90181306F
:100EE00049F713C06091E0017091E1014091E20186
:100EF0005091E3018091DF010E94EF0E84EF91E0B9
:100F0000FE013197F1F70197D9F7E091CA01F0910D
:100F1000CB0182859385039728F38091920190916C
:100F2000930101968AC01092C80181E00E94530E7D
:100F300085E790E00E94EB0D13C06091DB0170919A
:100F4000DC014091DD015091DE018091DA010E94C7
:100F5000EF0E84EF91E0FE013197F1F70197D9F799
:100F60008091C801813049F713C06091DB01709115
:100F7000DC014091DD015091DE018091DA010E9497
:100F8000EF0E84EF91E0FE013197F1F70197D9F769
:100F9000E091CA01F091CB0184819581039728F3F8
:100FA00050C08091C901813009F05ACF8091CA01A7
:100FB0009091CB010F960E94530B8091CA019091A2
:100FC000CB010C960E946D0B13C06091DB017091F8
:100FD000DC014091DD015091DE018091DA010E9437
:100FE000EF0E84EF91E0FE013197F1F70197D9F709
:100FF0008091C801813049F713C06091DB01709185
:10100000DC014091DD015091DE018091DA010E9406
:10101000EF0E84EF91E0FE013197F1F70197D9F7D8
:10102000E091CA01F091CB0184819581039728F367
:1010300080919201909193010197909393018093F5
:1010400092010E94EE060CCFCF93DF93EC01009744
:1010500011F483E050C09093CB018093CA01888142
:101060008093DA0181E998E09093DE018093DD01BD
:10107000D093DC01C093DB018E818093DF018EE78A
:1010800098E09093E3018093E2012696D093E101EA
:10109000C093E001269781E00E94530E80E690E025
:1010A0000E94EB0D66E970E020919201309193016E
:1010B000621B730B882777FD8095982F0E94FE0D89
:1010C00080E061E00E948A0E8CE690E00E94EB0DC9
:1010D0006091920170919301882777FD8095982FF8
:1010E0000E94FE0DCE010F960E946D0BCE010C9654
:1010F0000E94530B81E0DF91CF9108958091CA0146
:101100009091CB0106960E94870BE091CA01F09165
:10111000CB0182859385039718F481E08093C90100
:1011200008958091CA019091CB010E94870BE091B4
:10113000CA01F091CB0184819581039718F481E075
:101140008093C8010895AF92BF92CF92DF92EF9241
:10115000FF920F931F93DF93CF9300D0CDB7DEB7ED
:10116000BE016F5F7F4F0E94B50E00D000D0898115
:101170009A81A0E0B0E0EDB7FEB781839283A383AC
:10118000B48360E070E080E090E02FEF33E040E077
:1011900050E0EE24FF248701E8E8AE2EE3E1BE2E06
:1011A000C12CD12C0E94B7060F900F900F900F907A
:1011B000CB010F900F90CF91DF911F910F91FF9076
:1011C000EF90DF90CF90BF90AF900895CF92DF92D5
:1011D000EF92FF920F931F936B010E94A3087C0173
:1011E000B60180E090E028E833E140E050E00E9462
:1011F000D61200E010E0A80197010E9409132C19F3
:101200003D09C9011F910F91FF90EF90DF90CF90A2
:101210000895AF92BF92CF92DF92EF92FF920F9319
:101220001F93CF93DF93EC01142F009711F483E009
:10123000B8C080E090E02BE0660F771F881F991FF1
:101240002A95D1F728E631E040E050E00E940913EA
:101250005901113009F052C0EE24FF2490EEC92E3E
:101260009EE2D92E46C0870103701070011511054A
:1012700029F488816B8141E00E948C1188816C8106
:1012800040E00E948C11C6010197F1F70130110571
:1012900029F488816A8141E00E948C1188816B81E8
:1012A00040E00E948C11C6010197F1F70230110550
:1012B00029F48881698141E00E948C1188816A81CA
:1012C00040E00E948C11C6010197F1F7033011052F
:1012D00029F488816C8141E00E948C1188816981A8
:1012E00040E00E948C11C6010197F1F70894E11CBF
:1012F000F11CEA14FB0408F4B6CF3EC0112309F038
:101300005BC000E010E080EEE82E8EE2F82E31C0E7
:10131000C80183709070009741F488816C8141E02E
:101320000E948C11888169811CC08130910541F433
:101330008881698141E00E948C1188816A8111C095
:10134000029741F488816A8141E00E948C11888172
:101350006B8107C088816B8141E00E948C1188817C
:101360006C8140E00E948C11C7010197F1F70F5F7B
:101370001F4F0A151B0560F28881698141E00E94B8
:101380008C1188816A8141E00E948C1188816B8177
:1013900041E00E948C1188816C8141E00E948C1197
:1013A00081E0DF91CF911F910F91FF90EF90DF903F
:1013B000CF90BF90AF90089582E0F3CFFF920F934C
:1013C0001F93DF93CF930F92CDB7DEB78C010097B9
:1013D00011F483E01AC0FC018081882311F082E0BF
:1013E00014C0F80181816281FF24F394F982AE0177
:1013F0004F5F5F4F0E9419128981882319F4F80109
:10140000F38202C0F801138281E00F90CF91DF9147
:101410001F910F91FF900895FC01009711F483E054
:1014200008958081823021F48381648140E005C089
:10143000882339F48381648141E00E948C1181E02A
:101440000895813011F082E008958381648140E045
:101450000E948C1181E00895FC01009711F483E053
:1014600008958081823021F48381648141E005C048
:10147000882339F48381648140E00E948C1181E0EB
:101480000895813011F082E008958381648141E004
:101490000E948C1181E008950F931F93DF93CF93E7
:1014A0000F92CDB7DEB7082F142FAE014F5F5F4FFD
:1014B0000E9419126981612B6983802F0E94051295
:1014C0000F90CF91DF911F910F910895DC0100974C
:1014D00011F483E008958C918823B9F412968C91CD
:1014E0001297882339F4E62FF0E0E956FE4F408149
:1014F000469521C0813031F5E62FF0E0E956FE4FE8
:1015000011968C9160E0408119C08130D9F4129617
:101510008C911297882339F4E62FF0E0E956FE4FBC
:101520004081469507C0813069F4E62FF0E0E95626
:10153000FE4F4081409511968C9167E00E944C0AC5
:1015400081E0089582E0089599E0899FC001112407
:1015500065E070E00E94F512605E7F4FCB01089558
:10156000AF92BF92CF92DF92EF92FF920F931F93B1
:10157000CF93DF93EC01009711F483E029C000D0F2
:1015800000D0AA80BB80CC24DD2488819981A0E092
:10159000B0E0EDB7FEB781839283A383B48360E0AC
:1015A00070E080E090E02FEF33E040E050E0EE2488
:1015B000FF2487010E94B706DC01CB016AE070E0DE
:1015C0000E94F5126C8381E00F900F900F900F90A6
:1015D000DF91CF911F910F91FF90EF90DF90CF900F
:1015E000BF90AF9008958F929F92AF92BF92CF928B
:1015F000DF92EF92FF920F931F93DF93CF9300D070
:10160000CDB7DEB74C01009711F483E032C0FC0186
:101610008081BE016F5F7F4F0E94B50E00D000D069
:10162000F401A280B380CC24DD2489819A81A0E0DA
:10163000B0E0EDB7FEB781839283A383B48360E00B
:1016400070E080E090E02FEF33E040E050E0EE24E7
:10165000FF2487010E94B706DC01CB016AE070E03D
:101660000E94F512F401648381E00F900F900F90B7
:101670000F900F900F90CF91DF911F910F91FF90DE
:10168000EF90DF90CF90BF90AF909F908F90089594
:10169000FC01009711F483E00895818162810E942A
:1016A000611281E00895FC01009711F483E0089530
:1016B0008081882339F48181628140E00E948C110D
:1016C00081E00895813011F082E008958181628186
:1016D00041E00E948C1181E00895FC01009711F413
:1016E00083E008958081882339F48181628141E01B
:1016F0000E948C1181E00895813011F082E00895FC
:101700008181628140E00E948C1181E00895AF9256
:10171000BF92CF92DF92EF92FF920F931F93CF93DE
:10172000DF93EC01009711F483E036C000D000D0C5
:10173000AA80BB80CC24DD2488819981A0E0B0E020
:10174000EDB7FEB781839283A383B48360E070E03A
:1017500080E090E02FEF33E040E050E0EE24FF2403
:1017600087010E94B70680E090E00E94490420E0D3
:1017700030E447EE54E40E94190320E030E048ECE6
:1017800052E40E941F020E9449007D836C8381E025
:101790000F900F900F900F90DF91CF911F910F91AD
:1017A000FF90EF90DF90CF90BF90AF9008958F9211
:1017B0009F92AF92BF92CF92DF92EF92FF920F93E0
:1017C0001F93DF93CF9300D0CDB7DEB74C010097C6
:1017D00011F483E03FC0FC018081BE016F5F7F4F49
:1017E0000E94B50E00D000D0F401A280B380CC24BA
:1017F000DD2489819A81A0E0B0E0EDB7FEB7818356
:101800009283A383B48360E070E080E090E02FEFE8
:1018100033E040E050E0EE24FF2487010E94B70649
:1018200080E090E00E94490420E030E447EE54E478
:101830000E94190320E030E048EC52E40E941F02AD
:101840000E944900F4017583648381E00F900F903A
:101850000F900F900F900F90CF91DF911F910F91EC
:10186000FF90EF90DF90CF90BF90AF909F908F90C0
:1018700008957F928F929F92AF92BF92CF92DF9204
:10188000EF92FF920F931F93DF93CF9300D0CDB7CA
:10189000DEB75C014B0100E010E06E010894C11C52
:1018A000D11C702EF801EF54FE4FE08083E06E2DC6
:1018B00040E00E948C1144E0F42E81E064E0A60137
:1018C0000E9419128981882321F490E0E0E0F0E081
:1018D00029C035E0F32E81E065E0A6010E941912CF
:1018E0008981882321F491E0E1E0F0E01BC026E04B
:1018F000F22E81E066E0A6010E94191289818823F8
:1019000021F492E0E2E0F0E00DC097E0F92E81E0F2
:1019100067E0A6010E94191289818823E1F493E00F
:10192000E3E0F0E0EE0FFF1FEE0FFF1FE00FF11FEF
:10193000EF55FE4F108107C081E06F2DA6019A83FD
:101940000E9419129A8189818823B1F3F50190834D
:10195000F40170820CC083E06E2D41E00E948C1176
:101960000F5F1F4F0430110509F09BCF1FEF812F30
:101970000F900F90CF91DF911F910F91FF90EF90FB
:10198000DF90CF90BF90AF909F908F907F90089501
:101990000F931F938C01FC018081618140E00E94C4
:1019A0008C11F8018081628140E00E948C111F91AE
:1019B0000F9108950F931F938C01FC018081628128
:1019C00040E00E948C11F8018081618141E00E9419
:1019D0008C111F910F9108950F931F938C01FC019F
:1019E0008081618140E00E948C11F80180816281D8
:1019F00041E00E948C111F910F910895A0E0B0E08A
:101A0000BC01CD010E94490420E030E44CE951E4DE
:101A10000E9419030E944900DC01CB010895CF9375
:101A2000DF93EC01342F3695662311F4E42F02C0C6
:101A3000E42FEF5F6E2F70E00FC0842F90E0DE0187
:101A4000A80FB91F2C91FB01E81BF90BEC0FFD1F30
:101A500080818C9320834150341778F3DF91CF91AC
:101A600008958F929F92BF92CF92DF92EF92FF9252
:101A70000F93DF93CF9300D0CDB7DEB76B017C011E
:101A80004A01611571058105910529F480E3FA0188
:101A9000808311824AC097FD03C000E0BB240EC0C2
:101AA0008DE2FA018083F094E094D094C094C11C3C
:101AB000D11CE11CF11C01E0BB24B394C401800FD4
:101AC000911D9A838983C701B6012AE030E040E086
:101AD00050E00E942B13605DE981FA816083C701A9
:101AE000B6012AE030E040E050E00E942B13C9012B
:101AF000DA016C017D010F5FC114D104E104F1042E
:101B0000E9F6013118F0F401108A04C0F401E00F85
:101B1000F11D1082402F4150BB2019F4C40160E038
:101B200002C0C40161E00E940F0D0F900F90CF9191
:101B3000DF910F91FF90EF90DF90CF90BF909F903B
:101B40008F9008950F931F93082F482F417080E0C6
:101B500063E00E948C1110E016950795402F4170AC
:101B600080E064E00E948C1116950795402F41702B
:101B700080E065E00E948C1116950795017080E069
:101B800066E0402F0E948C111F910F91089580E014
:101B900062E041E00E948C1180E49FE10197F1F73F
:101BA00080E062E040E00E948C1108951F93182F9E
:101BB00080E061E041E00E948C11812F82958F705E
:101BC0000E94A20D0E94C70D812F0E94A20D0E94AB
:101BD000C70D1F9108951F93CF93DF93EC0110E081
:101BE00003C00E94D60D1F5FFE01E10FF11D808131
:101BF0008823B9F7DF91CF911F9108950F931F9319
:101C0000DF93CF93CDB7DEB760970FB6F894DEBF02
:101C10000FBECDBF8E010F5F1F4FA8010E94310D77
:101C2000C8010E94EB0D60960FB6F894DEBF0FBEA0
:101C3000CDBFCF91DF911F910F910895CF92DF9289
:101C4000EF92FF920F931F93DF93CF93CDB7DEB741
:101C500060970FB6F894DEBF0FBECDBF69017A0161
:101C60008E010F5F1F4FA8010E94310DC8010E9415
:101C7000EB0D8EE20E94D60DC701B601A8010E94AD
:101C8000310DC8010E94EB0D60960FB6F894DEBFCF
:101C90000FBECDBFCF91DF911F910F91FF90EF90BD
:101CA000DF90CF9008951F93182F80E061E040E00F
:101CB0000E948C11812F82958F700E94A20D0E942C
:101CC000C70D812F0E94A20D0E94C70D1F9108957C
:101CD0000F931F93CF93DF938B016115710511F45F
:101CE00082E013C0880F880F880F80640E94530E13
:101CF000C0E0D0E0F801EC0FFD1F80810E94D60DFE
:101D00002196C830D105B1F781E0DF91CF911F91C5
:101D10000F9108956295660F660F607C680F862F9D
:101D200080680E94530E089580E991E020E931E037
:101D3000F9013197F1F70197D9F782E20E94530E2A
:101D400088E00E94A20D0E94C70D8CE00E94530EF5
:101D500081E00E94530E08953F983E9A3D9886B1C7
:101D6000887F86B9309A379A0895982FFB016115BC
:101D7000710511F493E031C080919601813011F02A
:101D800095E02BC087B1807E87B987B1892B87B951
:101D9000369A80E090E0A0E0B0E003C00196A11D7B
:101DA000B11D349B06C088589341A040B04051F407
:101DB00010C0883823E1920720E0A20720E0B20794
:101DC00069F707C0349A84B195B19183808391E01B
:101DD00001C094E081E080939601892F0895282F17
:101DE00061157105E9F041155105D1F09091960109
:101DF000913011F085E008957093CD016093CC018E
:101E00005093CF014093CE0187B1807E87B987B1CF
:101E1000822B87B9369A339A9093960181E0089580
:101E200083E008959C01009711F483E0089582E017
:101E3000809395013093D3012093D2016093D10117
:101E4000E091D00185E0E89FF0011124E20FF31F3B
:101E5000618172814381548180810E94EF0E81E013
:101E60000895E091CE01F091CF01309709F00995E6
:101E70009091D0019F5F9093D0018091D1019817EC
:101E800041F41092D0011092D10181E0809395012C
:101E9000089585E0989FC0011124E091D201F0914E
:101EA000D301E80FF91F61817281438154818081E0
:101EB0000E94EF0E08951F920F920FB60F921124F9
:101EC0002F933F934F935F936F937F938F939F9342
:101ED000AF93BF93EF93FF9380919401813009F505
:101EE00082E08093940184B195B1E091CC01F091AE
:101EF000CD019183808315B814B8339880919501F2
:101F0000813041F4E091CE01F091CF01309731F072
:101F1000099504C0823011F40E94310F81E0809352
:101F20009401FF91EF91BF91AF919F918F917F911C
:101F30006F915F914F913F912F910F900FBE0F9036
:101F40001F9018958031C9F0813138F4843079F0D0
:101F5000883081F08230F1F407C08034A1F08038FD
:101F6000B1F08032B9F40CC086B181700EC086B178
:101F700082700BC086B1837008C086B1847005C0C2
:101F800086B1857002C086B1867086B9089586B123
:101F9000877086B9089578940895F8940895611526
:101FA000710511F483E00895833010F082E0089504
:101FB000E82FF0E0EE0FFF1FEC52FE4F71836083BD
:101FC00081E008951F920F920FB60F9211242F9364
:101FD0003F934F935F936F937F938F939F93AF93B1
:101FE000BF93EF93FF93E091D401F091D501309727
:101FF00009F00995FF91EF91BF91AF919F918F915A
:102000007F916F915F914F913F912F910F900FBEF4
:102010000F901F9018951F920F920FB60F921124D8
:102020002F933F934F935F936F937F938F939F93E0
:10203000AF93BF93EF93FF93E091D601F091D70157
:10204000309709F00995FF91EF91BF91AF919F9162
:102050008F917F916F915F914F913F912F910F9051
:102060000FBE0F901F9018951F920F920FB60F92F0
:1020700011242F933F934F935F936F937F938F938D
:102080009F93AF93BF93EF93FF93E091D801F091AB
:10209000D901309709F00995FF91EF91BF91AF9168
:1020A0009F918F917F916F915F914F913F912F9170
:1020B0000F900FBE0F901F90189585B7816085BF58
:1020C00085B7826085BF85B7846085BF85B7886026
:1020D00085BF84B78F7B84BF8BB780648BBF8BB782
:1020E00080688BBF8BB780628BBF0895882301F512
:1020F000623079F0633020F4613009F049C006C0E5
:10210000633069F0643009F043C00CC085B78E7F3E
:1021100002C085B7816085BF85B78D7F1CC085B73C
:102120008E7F02C085B7816085BF85B7826013C08E
:102130008130F9F4623089F0633018F4613041F590
:1021400005C0633069F0643019F50DC085B78B7F29
:1021500085BF85B7877F85BF19C085B78460F8CFF5
:1021600085B78B7F02C085B7846085BF85B78860DF
:10217000F2CF823069F4633019F0643049F403C05F
:1021800084B78F7B02C084B7806484BF81E00895E8
:1021900082E00895813049F0813020F0823051F0A2
:1021A00082E008958BB7806402C08BB780688BBFD4
:1021B00081E008958BB780628BBF81E00895813004
:1021C00049F0813020F0823051F082E008958BB7E1
:1021D0008F7B02C08BB78F778BBF81E008958BB761
:1021E0008F7D8BBF81E008958EE78ABB17BA83E0AD
:1021F00084BB11BA1BBA18BA15BA12BA089568305E
:1022000008F074C04423D1F58130A1F0813030F062
:102210008230E1F0833009F069C024C02AB381E044
:1022200090E002C0880F991F6A95E2F7809582239B
:102230008ABB5AC027B381E090E002C0880F991F83
:102240006A95E2F78095822387BB4EC024B381E074
:1022500090E002C0880F991F6A95E2F7809582236B
:1022600084BB42C021B381E090E002C0880F991F77
:102270006A95E2F78095822381BB36C04130B1F583
:10228000813091F0813028F08230C9F0833071F5CF
:1022900021C02AB381E090E002C0880F991F6A959F
:1022A000E2F7282B2ABB20C027B381E090E002C0D0
:1022B000880F991F6A95E2F7282B27BB15C024B316
:1022C00081E090E002C0880F991F6A95E2F7282B01
:1022D00024BB0AC021B381E090E002C0880F991F9F
:1022E0006A95E2F7282B21BB81E0089582E00895EA
:1022F000813051F0813030F0823041F0833049F04C
:1023000082E008956ABB03C067BB01C064BB81E083
:10231000089561BB81E00895683008F074C04423DB
:10232000D1F58130A1F0813030F08230E1F083309E
:1023300009F069C024C02BB381E090E002C0880F8F
:10234000991F6A95E2F7809582238BBB5AC028B308
:1023500081E090E002C0880F991F6A95E2F78095AE
:10236000822388BB4EC025B381E090E002C0880F75
:10237000991F6A95E2F78095822385BB42C022B3FC
:1023800081E090E002C0880F991F6A95E2F780957E
:10239000822382BB36C04130B1F5813091F081306B
:1023A00028F08230C9F0833071F521C02BB381E071
:1023B00090E002C0880F991F6A95E2F7282B2BBB8B
:1023C00020C028B381E090E002C0880F991F6A9571
:1023D000E2F7282B28BB15C025B381E090E002C0AE
:1023E000880F991F6A95E2F7282B25BB0AC022B3F4
:1023F00081E090E002C0880F991F6A95E2F7282BD0
:1024000022BB81E0089582E00895813051F081304F
:1024100030F0823041F0833049F082E008956BBBA8
:1024200003C068BB01C065BB81E0089562BB81E069
:102430000895FA014115510511F483E008956830BB
:10244000D0F4813049F0813028F0823039F0833087
:1024500091F406C089B305C086B303C083B301C03D
:1024600080B390E002C0959587956A95E2F78170F8
:10247000808381E0089582E00895FA0141155105B5
:1024800011F483E008956830D0F4813049F0813050
:1024900028F0823039F0833091F406C08AB305C049
:1024A00087B303C084B301C081B390E002C09595A7
:1024B00087956A95E2F78170808381E0089582E0D4
:1024C00008956830B0F5813091F0813028F0823085
:1024D000C9F0833071F521C02BB381E090E002C0D8
:1024E000880F991F6A95E2F728272BBB20C028B3D5
:1024F00081E090E002C0880F991F6A95E2F72827D3
:1025000028BB15C025B381E090E002C0880F991F59
:102510006A95E2F7282725BB0AC022B381E090E044
:1025200002C0880F991F6A95E2F7282722BB81E035
:10253000089582E008950F931F93182F062F40E00F
:102540000E94FF10813029F4812F602F41E00E940A
:102550008C111F910F910895DF93CF93CDB7DEB704
:1025600062970FB6F894DEBF0FBECDBF0E94F41085
:102570000E94AC0E0E94CB0F0E94940EDE011196B9
:10258000E5EBF1E082E101900D928150E1F7CE019F
:1025900001960E9424080E94280762960FB6F894BC
:1025A000DEBF0FBECDBFCF91DF910895629FD001F6
:1025B000739FF001829FE00DF11D649FE00DF11DFE
:1025C000929FF00D839FF00D749FF00D659FF00DAD
:1025D0009927729FB00DE11DF91F639FB00DE11D9A
:1025E000F91FBD01CF0111240895AA1BBB1B51E1A6
:1025F00007C0AA1FBB1FA617B70710F0A61BB70B73
:10260000881F991F5A95A9F780959095BC01CD0117
:102610000895A1E21A2EAA1BBB1BFD010DC0AA1F23
:10262000BB1FEE1FFF1FA217B307E407F50720F03B
:10263000A21BB30BE40BF50B661F771F881F991FB6
:102640001A9469F760957095809590959B01AC01FF
:10265000BD01CF01089597FB092E05260ED057FD29
:1026600004D0D7DF0AD0001C38F45095409530953F
:1026700021953F4F4F4F5F4F0895F6F79095809506
:10268000709561957F4F8F4F9F4F08952F923F9286
:102690004F925F926F927F928F929F92AF92BF9272
:1026A000CF92DF92EF92FF920F931F93CF93DF931E
:1026B000CDB7DEB7CA1BDB0B0FB6F894DEBF0FBE7B
:1026C000CDBF09942A88398848885F846E847D84C8
:1026D0008C849B84AA84B984C884DF80EE80FD80CA
:1026E0000C811B81AA81B981CE0FD11D0FB6F89440
:0E26F000DEBF0FBECDBFED010895F894FFCF01
:1026FE00417661696C61626C653A2000696E207585
:10270E0073653A20006E6F207061726B696E672080
:10271E00617661696C61626C65000000000000000A
:10272E000000000102020303030304040404040472
:10273E00040405050505050505050505050505053D
:10274E00050506060606060606060606060606061D
:10275E00060606060606060606060606060606060B
:10276E0006060707070707070707070707070707ED
:10277E0007070707070707070707070707070707DB
:10278E0007070707070707070707070707070707CB
:10279E0007070707070707070707070707070707BB
:1027AE00070708080808080808080808080808089D
:1027BE00080808080808080808080808080808088B
:1027CE00080808080808080808080808080808087B
:1027DE00080808080808080808080808080808086B
:1027EE00080808080808080808080808080808085B
:1027FE00080808080808080808080808080808084B
:10280E00080808080808080808080808080808083A
:10281E00080808080808080808080808080808082A
:10282E00080895000101017E0CB69ECCDAFA0EFE68
:10283E00DE0708092F0405062A0102032D73006F17
:10284E002B020304050000881309000700881309F2
:08285E0000000200000201006D
:00000001FF
